:100000000C94CB000C94F7000C94F7000C94F700C0
:100010000C94F7000C94F7000C94F7000C94F70084
:100020000C94F7000C94F7000C94F7000C94F70074
:100030000C94F7000C94F7000C94F7000C94F70064
:100040000C94B8080C94F7000C9490020C94BB022A
:100050000C94F7000C947A010C94F7000C94F700C0
:100060000C94F7000C94F70040039F01CF00670049
:1000700033002100100048454C503A204669727305
:10008000742074776F206368617261637465727342
:10009000206172652074686520636F6D6D616E64A8
:1000A0003B20696D706C656D656E7465643A0053D4
:1000B000657269616C3A200021005265626F6F744D
:1000C0000054696D696E67732054302C54312C5480
:1000D000322C54332C54343A00566F6C746167657B
:1000E0002056312C2056323A20202020202020205B
:1000F0000053657474696E67733A006572726F724B
:1001000000506172616D65746572206D6973736909
:100110006E6700506172616D65746572206F7574F1
:10012000206F6620626F756E647300577269746920
:100130006E6720746F20656570726F6D00556E6B11
:100140006E6F776E20636F6D6D616E640054455203
:100150004D3E005374696D756C61746F7220566505
:100160007273696F6E20332E30302E303000436F43
:100170006D6D616E64207465726D696E616C206670
:100180006F72207374696D756C61746F72000053C7
:1001900054415254000011241FBECFEFD8E0DEBFFF
:1001A000CDBF84B78093300414BE0FB6F894A895E1
:1001B00080916000886180936000109260000FBEA3
:1001C00012E0A0E0B1E0EAE3F5E102C005900D9293
:1001D000A03EB107D9F724E0A0EEB2E001C01D9225
:1001E000A033B207E1F70E941C0A0C949B0A0C94FE
:1001F0000000F8948CEC8AB988E08BB98FE284B95E
:1002000015B888E287B980E288B987E080937E00DC
:100210001092640010927B0080E58CBD1DBC299873
:100220002898219A209A78940895962F990F990FDB
:10023000690F90E1699FB001112481110CC07061B8
:1002400043987EBD0DB407FEFDCF6EBD0DB407FE15
:10025000FDCF439A08957069F3CF2998219A209889
:1002600008952898209A21980895219A209A08950F
:1002700081E08093E00280E280937C008FED8093A8
:100280007A000895CF93DF93CDB7DEB701C00000A9
:100290008091E0028823D9F70000DF91CF91089583
:1002A000CF93C82F811108C0E2E1F4E08FEF819372
:1002B00094E0EE31F907D9F70E944201EC2FEE0FDE
:1002C000CE0FEC2FF0E0EE5EFB4F8091E1028083D9
:1002D000E1E0EC0FF0E0EE5EFB4F8091E202808304
:1002E000CE5FEC2FF0E0EE5EFB4F8091E302808367
:1002F000CF9108951F920F920FB60F9211248F93F2
:100300009F9380917C0090E990937A008770813070
:1003100029F198F0823061F08091E0028E7F809325
:10032000E0029F918F910F900FBE0F901F90189534
:10033000809179008093E302EFCF809179008093E0
:10034000E10281E280937C008FED80937A009F919F
:100350008F910F900FBE0F901F901895809179008C
:100360008093E20282E280937C008FED80937A009A
:100370009F918F910F900FBE0F901F901895109224
:10038000E9021092E80286EE92E00E94D10889B15B
:1003900080718093E50289B180728093E4020895B0
:1003A0001F93CF93DF9300D0CDB7DEB7CE01019678
:1003B0000E94D10889819A812091E6023091E7025A
:1003C0008217930708F40197821B930B9A83898302
:1003D0000A9730F40F900F90DF91CF911F910895FD
:1003E00086EE92E00E94D10819B110718091E90265
:1003F000181781F01093E90219B110728091E80288
:10040000181799F01093E8020F900F90DF91CF9199
:100410001F9108958091E502181761F31093E5028A
:100420001111E8CF0E947F08E5CF8091E4021817F0
:1004300049F31093E4021111E5CF0E948E08E2CF38
:10044000E82FF0E0EE0FFF1FEA59FF4F85919491DE
:100450009F709093C5008093C400089582E08093BC
:10046000C00088E98093C10086E08093C2001092AA
:100470006D0310926C031092EB021092EA02E0E717
:10048000F0E0859194919F709093C5008093C40093
:1004900010921E0410921F040895DC0190916C03C9
:1004A00020916D03291789F0E92FF0E0E259FC4F04
:1004B00080818C939F5F903621F090936C0380E055
:1004C000089510926C0380E0089581E00895909162
:1004D000EB028091EA02981710F4891B0895805866
:1004E000891B0895E091EB0291E09E0F97FD16C0E5
:1004F0002091EA02921761F0F0E0E451FD4F808311
:10050000F8949093EB0288EB8093C100789408955F
:1005100080911E048F5F80931E04089590E0E8CFC1
:100520001F920F920FB60F9211248F939F93EF9308
:10053000FF93E0916D0381E08E0F803608F080E03C
:1005400090916C03891789F09091C600F0E0E25910
:10055000FC4F908380936D03FF91EF919F918F915A
:100560000F900FBE0F901F90189580911F048F5F02
:1005700080931F04F1CF1F920F920FB60F92112498
:100580008F939F93EF93FF93E091EA028091EB02A8
:100590008E17D1F0F0E0E451FD4F80818093C600CA
:1005A0008091EA028F5F87FD13C08093EA029091E9
:1005B000EB02981749F0FF91EF919F918F910F9067
:1005C0000FBE0F901F90189588E98093C100F3CF5C
:1005D0001092EA0280E0EBCF0F931F93CF93DF934B
:1005E000662371F0EC016150062F10E00F5F1F4F82
:1005F000080F191F89910E947202C017D107D1F705
:10060000DF91CF911F910F9108950F931F93FA01DE
:100610008B019C0100271127207F3327B4E13695F9
:10062000279517950795BA95D1F740E3400F4A33C0
:1006300010F047E3400F40838B019C0100271127F6
:100640002F70332789012227332740E3400F4A3395
:1006500010F047E3400F41838B019C010027107F7E
:10066000222733275CE036952795179507955A95ED
:10067000D1F740E3400F4A3310F047E3400F428385
:100680008B019C0100271F7022273327012F122F77
:10069000232F332740E3400F4A3310F047E3400F46
:1006A00043838B019C01007F11272227332784E09D
:1006B00036952795179507958A95D1F740E3400F12
:1006C0004A3310F047E3400F44836F7080E3860F96
:1006D0008A3310F087E3860F85838DE086831F9130
:1006E0000F910895FB01282F22952F7090E3920F10
:1006F0009A3310F097E3920F90838F7090E3980FE6
:100700009A3310F097E3980F91838DE082830895D8
:10071000AF92BF92CF92DF92EF92FF920F931F930F
:10072000CF93DF93CDB7DEB7C054D1090FB6F8949D
:10073000DEBF0FBECDBF5C017B018A010E944F0A64
:100740006C0186E3C816D10490F0C05CDF4F0FB691
:10075000F894DEBF0FBECDBFDF91CF911F910F91F7
:10076000FF90EF90DF90CF90BF90AF900895A601DB
:10077000B501CE0101960E94460AE1E0F0E0EC0FDF
:10078000FD1FEC0DFD1D8AE38083A6014F5F5F4FC7
:100790000115110561F1E1E0F0E0EC0FFD1FE40F40
:1007A000F51F20E030E070E27083D701A20FB31F85
:1007B0009C91692F62956F7080E3860F8A3310F0E9
:1007C00087E3860F81839F7080E3890F8A3310F05F
:1007D00087E3890F82834D5F5F4F4C33510508F0EB
:1007E00098012F5F3F4F339620173107E8F2E1E081
:1007F000F0E0EC0FFD1FE40FF51F8DE0808311E0AA
:10080000140F09F4A2CFFE0131967F0100E0F70139
:1008100081917F010E9472020F5F0117C0F395CF93
:10082000EF92FF920F931F93CF93DF93CDB7DEB775
:10083000C054D1090FB6F894DEBF0FBECDBF7C0106
:100840000E944F0A8C01CF9710F00EE310E0A80130
:10085000B701CE0101960E94460AE1E0F0E0EC0FFC
:10086000FD1FE00FF11F8DE08083FE01E00FF11FFF
:100870008AE082830E5FCE0101967C0110E0F701D1
:1008800081917F010E9472021F5F1017C0F3C05C4C
:10089000DF4F0FB6F894DEBF0FBECDBFDF91CF9113
:1008A0001F910F91FF90EF900895EF92FF920F9399
:1008B0001F93CF93DF93CDB7DEB7C054D1090FB6E6
:1008C000F894DEBF0FBECDBF8C010E944F0A7C01A1
:1008D00081E4E816F10418F080E4E82EF12CA70179
:1008E000B801CE0101960E94460AEE2091F08E01D9
:1008F0000F5F1F4FEA94F12CEFEFEE1AFE0AE00EA5
:10090000F11EF80181918F010E9472020E151F05E0
:10091000C1F780E20E947202C05CDF4F0FB6F8940C
:10092000DEBF0FBECDBFDF91CF911F910F91FF9022
:10093000EF9008950F931F93CF93DF9300D000D0D3
:100940001F92CDB7DEB7AC01FE0131968E010A5F72
:100950001F4F9A01ADECBCEC0E942F0A969587952B
:100960009695879596958795BC01660F771F9C0194
:10097000220F331F220F331F220F331F260F371F63
:10098000421B530B4193AC01E017F10711F790E0C4
:1009900015E01150E1E0F0E0EC0FFD1FE10FF11D5B
:1009A0008081811109C01123C1F0992391F380E363
:1009B0000E94720291E0EDCF805D0E9472021123CD
:1009C00011F091E0E6CF0F900F900F900F900F90E5
:1009D000DF91CF911F910F91089580E30F900F90B9
:1009E0000F900F900F90DF91CF911F910F910C946A
:1009F00072028DE00E9472028AE00C9472028CE214
:100A00000E94720280E20C9472021092CE0308954A
:100A100083E591E00C9410048AEB90E00E941004AE
:100A20009AE088E10FB6F894A895809360000FBE15
:100A300090936000FFCF8091CE03811108C0EFEC4E
:100A4000F3E0119284E0EF30F807D9F708958DE4D0
:100A500091E00E945504F3CFDC019C0140E060E08E
:100A600070E02F5F3F4FF9013197908190539A309A
:100A700078F44F5F4630A8F7FB01EE0FFF1FEE0F33
:100A8000FF1F6E0F7F1F660F771F690F711DE9CF64
:100A9000442371F12A1B3B0BFD01E20FF11D40E0E5
:100AA00020E030E0919190539A3090F44F5F4630BF
:100AB000C8F7D901AA0FBB1FAA0FBB1F2A0F3B1FE4
:100AC000220F331F290F311D919190539A3070F3EB
:100AD000442371F06333710518F42333310580F03A
:100AE00083E191E00E9455048BEF90E00C94100498
:100AF00081E091E00E9455048BEF90E00C9410048B
:100B0000609324042093250408950F931F93CF939B
:100B1000DF938BE291E00E94100402E214E0C2E055
:100B2000D0E0F80161918F01CE010E94660A219602
:100B3000F0E0C031DF07A9F7DF91CF911F910F914E
:100B40000895CF93DF9381EF90E00E9410040E94FC
:100B500067028035E0F389ED90E00E9455048091B2
:100B6000240490E00E949A040E94FF0480912504CE
:100B700090E00E949A040E94F9040E946702803566
:100B8000E0F381EC90E00E9455048091260490915E
:100B900027040E949A04C8E2D4E00E94FF048991CD
:100BA00099910E949A0484E0C033D807B1F7DF918D
:100BB000CF910C94F904BF92CF92DF92EF92FF9203
:100BC0000F931F93CF93DF9386E790E00E9410046A
:100BD0000E94F90486E0E82E81E0F82E9EE3C92EFB
:100BE00091E0D92EE8E0F0E0CAE4D1E0BE2E0E9408
:100BF00067028035E0F3BB2051F08E01C0E0F801C0
:100C000081918F010E947202CF5FBC12F8CF0E94C7
:100C1000F904CE14DF0471F0F701C081D181FE0127
:100C200001900020E9F73197EC1BFD0B84E0E80E02
:100C3000F11CDCCFDF91CF911F910F91FF90EF90CE
:100C4000DF90CF90BF900895CF93DF9300D0CDB7C2
:100C5000DEB7E2E2F4E08181898380818A8342E029
:100C600050E0BE016F5F7F4F88EB90E00E948803E9
:100C70000E94F9040F900F90DF91CF910895109288
:100C800022045E980C94240681E0809322045E9AEC
:100C90000C942406109223045F980C94240681E09F
:100CA000809323045F9A0C9424060C942406DC01A0
:100CB0009C0140E060E070E02F5F3F4FF901319709
:100CC000908190539A3078F44F5F4630A8F7FB013B
:100CD000EE0FFF1FEE0FFF1F6E0F7F1F660F771FB8
:100CE000690F711DE9CF442341F02A1B3B0B2150B2
:100CF000A20FB11D8C91833461F08FEA90E00E94C5
:100D0000550480E090E00E94600A0E949A040C94CE
:100D1000F90480E090E00E94780AEFCFFC01319660
:100D2000DC018C9180538A3040F490E09F5F819188
:100D300080538A30D8F39111089581E091E00E94A8
:100D400055048BEF90E00C941004AF92BF92CF92B9
:100D5000DF92EF92FF920F931F93CF93DF93CDB764
:100D6000DEB72A970FB6F894DEBF0FBECDBF8C0159
:100D7000CE0101965C017E019BE0E90EF11CF501BC
:100D800020E0D801A20FB11D9D0140E060E070E0BD
:100D90002F5F3F4FD90111979C9190539A3078F46F
:100DA0004F5F4630A8F76B01CC0CDD1CCC0CDD1C72
:100DB0006C0D7D1D660F771F690F711DE9CF4423F0
:100DC00019F161937193201BEE15FF05D1F6E6E250
:100DD000F4E0D5018D919D915D0181939193B4E0F3
:100DE000E033FB07B1F72A960FB6F894DEBF0FBECB
:100DF000CDBFDF91CF911F910F91FF90EF90DF90CA
:100E0000CF90BF90AF90089581E091E00E9455048B
:100E10008BEF90E02A960FB6F894DEBF0FBECDBFE1
:100E2000DF91CF911F910F91FF90EF90DF90CF90C6
:100E3000BF90AF900C9410040F931F93CF93DF9348
:100E4000EC018A01DB018C919E01280F311D50E0DD
:100E5000E0E0F0E02F5F3F4FD90111979C91905354
:100E60009A3078F45F5F5630A8F7DF01AA0FBB1FF6
:100E7000AA0FBB1FEA0FFB1FEE0FFF1FE90FF11DAB
:100E8000E9CF552371F0D801ED93FC932C1B3D0B5A
:100E90002150FB01208381E0DF91CF911F910F91C1
:100EA000089580E0DF91CF911F910F91089581E027
:100EB0008093CE030E94F9048EE691E00E94100414
:100EC00083E591E00E9410040C941B050F931F937F
:100ED000CF93DF931F92CDB7DEB7CE0101960E946C
:100EE0004D02811152C08981883009F454C08D307F
:100EF00009F0AAC08091CE038111C6C08091CF03B2
:100F00004FEC53E0882309F466C0803209F45DC0D9
:100F100008F457C08C3209F458C08A3309F455C01C
:100F2000FA018081811109C0CBC08950823060F004
:100F300031968081882309F4C4C0803229F0A8F357
:100F40008C3211F08A33A1F7BF016F5F7F4F10829F
:100F50008181882309F440C0803231F008F4A0C0B8
:100F60008C3211F08A33C1F56F5F7F4FFB018081B6
:100F70008111F2CF31C00FE310E08091CE038111D7
:100F8000AAC0F801E153FC4F10820F90DF91CF917E
:100F90001F910F910895EFECF3E080E090E004C022
:100FA00001968034910539F321912111F9CF8111F6
:100FB0008AC08091CE03882341F387E00E947202A9
:100FC000E4CF8950823008F0ABCF4F5F5F4FFA011A
:100FD000808181119ACFBA01FA0101900020E9F7CE
:100FE0003197E41BF50B329738F1FA018081A6E0C6
:100FF000B1E02AE431E010E008C01F5F1F3009F4BF
:1010000054C02D913C9111971496F9019081981339
:10101000F4CFFA010181F90191810913EECFE12F9B
:10102000F0E0EE0FFF1FEE0FFF1FE050FF4F0190AB
:10103000F081E02DCB0109950E941B050F90DF91F7
:10104000CF911F910F9108952FE034E0EFECF3E082
:1010500004C02E173F0709F4ACCF8F010F5C13407B
:1010600091919111F6CF9091CE03911130C090E003
:101070000E943E0AF801E153FC4F80830F90DF91FC
:10108000CF911F910F9108958DE00E94720280917F
:10109000CE03882309F432CF8AE00E9472022ECF59
:1010A0008950823008F098CF5FCF8DE391E00E94A5
:1010B000100480E090E00E94DB050E941B05BECF7B
:1010C000FA01BF0189CF8C010150110956CF0E944E
:1010D00072028981CCCF88E00E9472028091CE0397
:1010E000882309F44ECF80E20E9472028981909198
:1010F000CE03992309F445CF0E94720242CF80911A
:101100002204882329F0109222045E980C9424066D
:1011100081E0809322045E9A0C942406809123043B
:10112000882329F0109223045F980C94240681E010
:10113000809323045F9A0C94240614BC93E095BD1D
:1011400086E086BDEEE6F0E0808181608083A89A2B
:10115000109221041092200410928000909381003C
:1011600087EE9FEF9093850080938400B09A089556
:101170001F920F920FB60F9211248F939F9386E0C8
:1011800086BD8091200490912104019690932104C2
:10119000809320049F918F910F900FBE0F901F900E
:1011A0001895F8942091200430912104FC0131839A
:1011B000208378940895CF93DF9300D0CDB7DEB726
:1011C0009A8389831FC084E890E027EE3FEFFC01FB
:1011D0003183208386E390E026E330E0F90120812B
:1011E0002160FC01208386E390E0FC018081882F50
:1011F00090E081709927892BB1F389819A810197B9
:101200009A83898389819A81892BE9F600000F905E
:101210000F90DF91CF910895FF920F931F93CF937B
:10122000DF931092110402E010E0FF24FA94C2E26E
:10123000D4E0C8010E94580A8993F8220F5F1F4F1B
:1012400084E0C033D807A9F78FEFF81209C08EE009
:10125000ECE3F1E0A2E2B4E001900D928A95E1F7AF
:10126000DF91CF911F910F91FF9008951F93CF931E
:10127000DF9300D0CDB7DEB7809122048150833058
:1012800010F010921104CE0101960E94D1088091B5
:101290001104813009F486C008F477C0823009F166
:1012A000833009F06AC089819A8120910F043091BE
:1012B00010048217930708F493C0821B930B9A8340
:1012C000898320912E0430912F048217930708F40C
:1012D0004EC082E0809311048FE094E00E94D10818
:1012E00046C05E9A6091240480E00E9415010E942D
:1012F0002D010E94380180912804909129040E94B8
:10130000DB080E94350180E00E9450010E943801F4
:1013100080912A0490912B04009709F07BC081E012
:101320000E9450016091250480E00E941501809187
:101330002C0490912D04892B09F05AC08FE094E081
:101340000E94D10883E0809311045E9880912C0460
:1013500090912D04892B09F047C04CE050E062E1E8
:1013600074E08EE891E00E9488030E94F9040F90D7
:101370000F90DF91CF911F910895109211040F905B
:101380000F90DF91CF911F91089510912204113099
:1013900009F443C0109222040F900F90DF91CF9177
:1013A0001F91089589819A8120910F043091100432
:1013B00082179307B8F0821B930B9A83898320913D
:1013C0002604309127048217930788F212E01093C5
:1013D00022048FE094E00E94D10810931104C7CF3B
:1013E00001976BCF0197E7CF83E00E945001B5CF03
:1013F0000E9431010E94380180912C0490912D04AB
:101400000E94DB080E94350182E00E9450010E9488
:10141000380194CF0E94DB0882CF8FE891E00E94D0
:1014200055040E94F9041093110489819A819093C4
:10143000100480930F049BCF0E94F9000E949D0826
:101440000E942E020E9457070E94BF010E940C09B1
:101450000E9466070E94D0010E943609F9CFA29F20
:10146000B001B39FC001A39F700D811D1124911D78
:10147000B29F700D811D1124911D08959111089541
:1014800081568A5108F4805285580895FB01DC0189
:1014900002C005900D9241505040D8F70895FC01CC
:1014A00005900020E9F7809590958E0F9F1F089575
:1014B000F999FECF92BD81BDF89A992780B508951C
:1014C000A8E1B0E042E050E00C947F0A262FF999A1
:1014D000FECF92BD81BDF89A019700B4021639F093
:1014E0001FBA20BD0FB6F894FA9AF99A0FBE089564
:1014F0000E948D0A272F0C948E0ADC01CB01FC017F
:10150000F999FECF06C0F2BDE1BDF89A319600B45C
:101510000D9241505040B8F70895262FF999FECF0B
:101520001FBA92BD81BD20BD0FB6F894FA9AF99A00
:0A1530000FBE01960895F894FFCF56
:10153A00DB054A01080553015706640105057B01CD
:10154A0055069D014F06B4014A06C5014406DB0152
:10155A003F06F1010C050402A10525022C053702FC
:10156A00A5066C028E06A4028505C302000019199D
:10157A00E803320032003200E8034845202048459B
:10158A006C70005645202053686F77205645727359
:10159A00696F6E00534E202053686F77205365722F
:1015AA0069616C204E756D62657200454F2020534B
:1015BA006574204563686F204F66662028666F72DF
:1015CA00206175746F6D6174696F6E2900475320CD
:1015DA002047657420537461747573206F6E2F6F82
:1015EA0066667300524520205245636F7264696EC5
:1015FA0067206F6E004E5220204E6F5265636F72E5
:10160A0064696E6720286F66662900525520205249
:10161A00556E3B2053746172742070756C736573D8
:10162A00004F462020536574206F757470757420BE
:10163A004F466600424F2020424F6F742F726573E7
:10164A00657420286669726D7761726520757064A9
:10165A0061746529005353202053686F77205365BE
:10166A007474696E677300535620203C302E2E35F1
:10167A00303E2C3C302E2E35303E20536574205699
:10168A006F6C746167653B20706F732E20616E64A6
:10169A00206E65672E2070756C7365005354202088
:1016AA003C302E2E36353533353E2C2E2E2C3C3002
:1016BA002E2E36353533353E205365742054696DE8
:1016CA00696E673B20352074696D696E67207061A9
:1016DA00726D7300534320203C302E2E363535333D
:1016EA00353E205365742043616C69627261746986
:1016FA006F6E005752202057726974652F73746F8A
:10170A00726520616C6C2073657474696E6773000E
:00000001FF
